:101E220000A8C0003F065B4F666D7D077F6F00080C
:101E320040014148BF86DBCFE6EDFD87FFEFF6317B
:101E420018312027083108320831082608311831A4
:101E520020270831083208310825082618262824A8
:101E620008250826082508240823482310250825C4
:101E720018221023082408250826082708310827D5
:101E820008260825300008230821082540160816D0
:101E92001021082130F5FDF464F73000090609012C
:011EA200211E
:100F5700012F00015900014E00012D00012700015A
:100F67004D000151AA0845000102030405060701C7
:100F7700250001320001290002220000023B000087
:100F8700013A00013900012E000158000126000135
:100F97002B00013101012800012C00015200013012
:010FA7000049
:101FFD00120003E92406F9E43AFA120762754F005C
:10200D00F55075450175490A75480A75470A7546B3
:10201D000AAE4FFF7C007D641206E18F4AAE4FAFD2
:10202D00507C007D641206E17E007F0ACFCDCFCEBD
:10203D00CCCE1206E18F4BAE4FAF507C007D0A1215
:0F204D0006E18D4C753901752801AF3902273135
:10215500854812854913854A14854B15854C16AB60
:1021650047AD46AF45122551E52BB40123E4F528CB
:10217500E52FC394325004052F8015E531C39480B3
:102185005008E53125E0F5318003753101E4F52F7F
:0A219500E5287005AF311227312252
:10109400E552600E752B017D0A7C007F107E2712BD
:1010A4001F20E52D64017044054EE54ED3940540A0
:1010B4003BE545045407F545E546045407F546E584
:1010C40047045407F547E548045407F548E549043F
:1010D4005407F549E54A045407F54AE54B04540717
:1010E400F54BE54C045407F54CE4F54EE54D70031F
:1010F4000211BF053AE53A64287027E55964037084
:1011040021E52C701DF52D754501121FFDE52960A3
:101114000AE4F52974452525F8A632E4F54DF53A97
:10112400F559E53A64287039E55964047033E52CBF
:10113400702FF539F52D753001752901F54DF53A06
:10114400F55975450275490A75480A75470A754681
:101154000A75250574452525F8E6F532741026F63A
:1011640022E53A64287042E5596405703CE52C7028
:1011740038F539F52D754503E529600AE4F5297438
:10118400452525F8A632754C0A754B0A754A0A7529
:10119400490A75480A75470A75460A752601E4F531
:1011A4004DF53AF559752B0122E53AD39428400BB5
:0C11B400E4F539F52DF54DF53AF559221A
:100056007F01122270EF64016003020114F52BF593
:100066002DF528E539700CE52E7008E5267004E5B7
:10007600296020E52C701CF545F546F547F548F551
:1000860049F54AF54BF54CF539F52EF526F5297562
:10009600310122E52C60057F020224E1E52C600394
:1000A60002058975450575490A75480A75470A7531
:1000B600460AE5587018FF12000E8F4A7F0112009B
:1000C6000E8F4B7F0212000E8F4C75580122E55899
:1000D600B401197F0312000E8F4A7F0412000E8F9F
:1000E6004B7F0512000E8F4C75580222E5586402AC
:1000F60060030205897F0612000E8F4A7F071200F1
:100106000E8F4B7F0812000E8F4CE4F55822E4FF49
:10011600122270EF64016003020589E52C60030278
:100126000589E5266401704AF558F52B753DAAF553
:100136003EFF12000E8F3F7F0112000E8F407F029E
:1001460012000E8F417F0312000E8F427F041200B1
:100156000E8F437F0512000E8F447B007A00793D97
:100166007D081222EFE4F5267D1EFC7FE87E030261
:100176001F20E5586402600302030D7545067F03E0
:1001860012000E7E00C006C007E4FF12000EEFFD4F
:10019600D0E02DFBD0E03400FAAE3BAF3C7C007DD6
:1001A600641206E1EF2BFFEE3AFE7C007D0A120692
:1001B600E18F338F477F0312000E7E00C006C00713
:1001C600E4FF12000EEFFDD0E02DFBD0E03400FA84
:1001D600AE3BAF3C7C007D641206E1EF2BFFEE3AAE
:1001E600FE7C007D0A1206E1AF058F348F487F043E
:1001F60012000E7E00C006C0077F0112000EEFFD42
:10020600D0E02DFBD0E03400FAAE3BAF3C7C007D65
:10021600641206E17E007F0ACFCDCFCECCCE120689
:10022600E1EF2BFFEE3AFE7C007D0A1206E18F35E8
:100236008F497F0412000E7E00C006C0077F0112A0
:10024600000EEFFDD0E02DFBD0E03400FAAE3BAF60
:100256003C7C007D641206E17E007F0ACFCDCFCEC6
:10026600CCCE1206E1EF2BFFEE3AFE7C007D0A12A1
:1002760006E1AF058F368F4A7F0512000E7E00C05D
:1002860006C0077F0212000EEFFDD0E02DFBD0E086
:100296003400FAAE3BAF3C7C007D0A1206E1ED2B42
:1002A600FFEC3AFE7C007D0A1206E18F378F4B7F0A
:1002B6000512000E7E00C006C0077F0212000EEF78
:1002C600FDD0E02DFBD0E03400FAAE3BAF3C7C0025
:1002D6007D0A1206E1ED2BFFEC3AFE7C007D0A1248
:1002E60006E1AF058F388F4C7D1E7C007FE87E03CC
:1002F600121F201226E7EF6003020589FB7A0079B8
:10030600337D06FC022509E5397008F558754D015F
:10031600055922E53964017027F558752B01754595
:100326000175490A75480A75470A75460A7525050D
:1003360075290174452525F8E6F532741026F6224E
:10034600E539B40207E4F558752B0122E539640353
:1003560060030204A8F558F52B752801AF3912275A
:1003660031AE22AF237C007D641206E1AA06AB07FC
:10037600AE4FAF507C007D641206E1EF2BFBEE3AE8
:10038600FAAE3BAF3C7C007D641206E1EF2BFBEE40
:100396003AFA7C007D0AAF03FE1206E18F338F47DF
:1003A6007C007D0AAF03AE021206E1AF058F348FE3
:1003B60048AE22AF237C007D641206E17E007F0AF0
:1003C600CFCDCFCECCCE1206E1AA06AB07AE4FAF4D
:1003D600507C007D641206E17E007F0ACFCDCFCE31
:1003E600CCCE1206E1EF2BFBEE3AFAAE3BAF3C7CED
:1003F600007D641206E17E007F0ACFCDCFCECCCE43
:100406001206E1EF2BFBEE3AFA7C007D0AAF03FE03
:100416001206E18F358F497C007D0AAF03AE0212CA
:1004260006E1AF058F368F4AAE22AF237C007D0AE8
:100436001206E1AA04AB05AE4FAF507C007D0A124E
:1004460006E1ED2BFBEC3AFAAE3BAF3C7C007D0AB5
:100456001206E1ED2BFBEC3AFA7C007D0AAF03FEB7
:100466001206E18F378F4B7C007D0AAF03AE021276
:1004760006E1AF058F388F4C7D1E7C007FE87E033A
:10048600121F201226E7EF700BFB7A0079337D06E8
:10049600FC122509753904E4F52B752801AF3902DC
:1004A6002731E53964046003020589F558AE4FAF7C
:1004B60050FC7D641206E1AD07E4FF122490AE4FB6
:1004C600AF507C007D641206E17E007F0ACFCDCF5F
:1004D600CECCCE1206E1AD077F01122490AE4FAF0F
:1004E600507C007D0A1206E17F02122490AE22AFF4
:1004F600237C007D641206E1AD077F03122490AED3
:1005060022AF237C007D641206E17E007F0ACFCDF8
:10051600CFCECCCE1206E1AD077F04122490AE22D8
:10052600AF237C007D0A1206E17F05122490AE3BC4
:10053600AF3C7C007D641206E1AD077F0612249075
:10054600AE3BAF3C7C007D641206E17E007F0ACFA5
:10055600CDCFCECCCE1206E1AD077F07122490AEEA
:100566003BAF3C7C007D0A1206E17F08122490EF27
:100576007003754508E4F52B7528017F05122731B0
:04058600E4F539223D
:100BF5007F031221E6EF64016003020CCDE52904B1
:100C05005401F5296003020C8D74452525F8A6329B
:100C1500E5306018AD4A7F0A122490AD4B7F0B1268
:100C25002490AD4C7F0C122490E4F530E52C6064E3
:100C35007F0A12000EEF654A70287F0B12000EEF37
:100C4500B54B1F7F0C12000EEFB54C1675450AE427
:100C5500F52CF552F52B753101F5397F031224E199
:100C6500803275520175490A75480A75470A7546F5
:100C75000A75450A75250574452525F8E6F5327486
:100C85001026F6752901800C74452525F8E6F53200
:100C9500741026F6E53964016003020DAAF52BE50B
:100CA5004B75F00AA47C00254CFDEC35F0FCE54ABB
:100CB50075F064A4AEF02DF523EE3CF522753902EE
:100CC500752801AF39022731E5296401701D7F01BF
:100CD5001221E6BF0115E525C394074003020DAABD
:100CE50074452525F8A63205258021E5296401707E
:100CF500287F041221E6BF0120E525D39400500387
:100D0500020DAA74452525F8A63215257445252515
:100D1500F8E6F532741026F622E529B401197F05A7
:100D25001221E6BF011174452525F8E624F0C39488
:100D350009507205320622E529B401197F021221F4
:100D4500E6BF011174452525F8E624F0D39400404B
:100D55005415321622E4FF1221E6EF64017046E5D0
:100D65002C7042E5397008E5587004E5266007E403
:100D7500F558F539F526752E01752B01752D01E50B
:100D850029600AE4F52974452525F8A632E4F545D8
:100D9500754601754702754803754904754A057519
:060DA5004B06754C07220D
:10151E00E4F52DF52BE5396402703985424A854391
:10152E004B85444CF52FE54B75F00AA4FDACF0E568
:10153E004A75F064A42DFFE5F03CFE7C00EF254CCF
:10154E00F53CEC3EF53B753903E4F52B752801AF00
:10155E0039022731E5586402702D75450685424AD9
:10156E0085434B85444CE54B75F00AA4FDACF0E584
:10157E004A75F064A42DFFE5F03CFE7C00EF254C8F
:10158E00F53CEC3EF53B22E52E640160030216317C
:10159E0075450475490A75480A75470A75460AFF66
:1015AE0012000EE53F75F00AA42540C39FFFC00749
:1015BE007F0312000EC3D0E09FF54AF5367F01126D
:1015CE00000EE54175F00AA42542C39FFFC0077FB8
:1015DE000412000EC3D0E09FF54BF5377F021200C8
:1015EE000EE54375F00AA42544C39FFFC0077F058F
:1015FE0012000EC3D0E09FF54CF538E4F535F53406
:10160E00F5331226E7EF700BFB7A0079337D06FC7B
:10161E00122509E4F52E7531017D1EFC7FE87E034F
:04162E00121F202245
:10260200122676EF6013E52C600F12273DBF0204FD
:0A2612007F0180027F021224E12202
:10236C0012004FEF602FE53D64AA7029AD3FFF12BC
:10237C002490AD407F01122490AD417F0212249035
:10238C00AD427F03122490AD437F04122490AD44E0
:06239C007F0512249022CF
:1014090078087C007D007BFF7A1E799C7E007F072F
:1014190012065A1225E71225911225311226857FC7
:10142900981223D57F807E25121D991225AE780F3B
:101439007C007D007B007A0079087E007F07120618
:101449005A1217447F2B1226667BFF7A1079947FF4
:1014590002121EA37BFF7A217955E4FF121EA37B9A
:10146900FF7A0079567F04121EA37BFF7A0B79F568
:101479007F07121EA37BFF7A15791E7F09121EA30F
:101489007BFF7A2679027F06121EA37BFF7A2379D6
:101499006C7F0B121EA37D07E4FF1226FB75140057
:1014A9007515007516517517007518017B007A00BE
:1014B900793D7D087C001223A27B007A00793D12D8
:1014C900272475245A752AFC752C01E4F5457549BC
:1014D9000A75480A75470A75460AF54CF54BF54AE7
:1014E90075250574452525F8E6F532741026F67537
:1014F90029017F021224E17BFF7A1E7940751400CD
:1015090075155C7516F0AD2AAF2412205C122737C9
:0515190012232E80FBEF
:0926F2008B88898C88898F888906
:100FA80052007A86860086860086860086860086B7
:090FB800860086860041006F09E5
:03002B0002272B7E
:06272B0053BCEFD20C329A
:020DAB001573BE
:100DAD00200C03020F54C20C90006EE0B4090040F9
:100DBD0003020F36900DC8F8282873020E0F020D8E
:100DCD00E3020DF5020E21020DE3020DF5020E38C0
:100DDD00020DE3020DF5AFBDEFFEADBE7C00E42DBF
:100DED00FFEC3E900070803CAFBDEFFEADBE7C00D1
:100DFD00E42DFFEC3E900072F0A3EFF0751D0102A3
:100E0D000F3CAFBDEFFEADBE7C00E42DFFEC3E9080
:100E1D0000748010AFBDEFFEADBE7C00E42DFFEC85
:100E2D003E900076F0A3EFF0020F3CAFBDEFFEADAC
:100E3D00BE7C00E42DFFEC3E900078F0A3EFF09027
:100E4D000078E0FEA3E07807CEC313CE13D8F9A83F
:100E5D0073F6C394065013A873E675F003A4247AB1
:100E6D00F582E43400F583E014F090006FE014F0A7
:100E7D006003020F3C7409F0A873E4F6A873E6FF53
:100E8D00C394064003020F3CEF75F003A4247AF5DA
:100E9D0082E43400F583E0C39480502AE6FF75F0B8
:100EAD0003A4247BF582E43400F583E0D3948040E1
:100EBD0040EF75F003A4247CF582E43400F58374CF
:100ECD0001F0F51E802BA873E6FF75F003A4247BBB
:100EDD00F582E43400F583E0C394805014EF75F08F
:100EED0003A4247CF582E43400F5837402F0751EAE
:100EFD0001A873E6FF75F003A4247AF582E43400AB
:100F0D00F583E0FEEF75F003A4247BF582E4340055
:100F1D00F583EEF0E675F003A4247AF582E434004F
:100F2D00F5837486F006020E8990006E74FFF090C2
:100F3D00006EE0D39408400374FFF090006EE0045F
:070F4D00F09026F293F5BCC1
:030F540005732200
:0226A3001573AD
:0926A500A873A61EE4F51EE6FF71
:0326AE000573228F
:0226B10015739F
:0926B300A873A61DE4F51DE6FF65
:0326BC0005732281
:1023D5008F9D75BC88439720D2AD90004574FFF062
:1023E500A3740DF0A374ABF0A374FFF0A37426F0EF
:1023F500A374A3F0A374FFF0A37426F0A374B1F043
:0124050022B4
:070003007B017A00797022F5
:1021E600C3EF64809480403BD3EF64809485503382
:1021F600EFFD3395E0FC90007C75F003ED1208EDE1
:10220600EC75F003A42583F583E0FE90007C75F061
:1022160003ED1208EDEC75F003A42583F583E4F0D5
:05222600AF06227F035A
:01222B002290
:0424B900157315730F
:1024BD00122704A873A60608A607A873E6FE08E669
:0F24CD00FF4E600BEF24FFFFEE34FFFE12270DD2
:0524DC000573057322E9
:1025310053B1EF43B210120026E4F5D975DA49D24E
:10254100DE90003F74FFF0A37424F0A374B9F0226D
:081F20008E158F168C178D1829
:101F2800122704EF4E7066AF18AE1712270DC3E5DF
:101F380016940AE5159400404BE47B18FAF9F890DA
:101F48001E221208D1120818C006C007AE15AF1617
:101F5800AB07AA06E4F9F8D007D006120818AB07B1
:101F6800AA06AFF9EFFEADE97C00E42DFFEC3ECF09
:101F78002BCF3AAD07FCAF03AE0212003ED2D843D6
:0F1F8800DA01800612002653DAFE7F02227F0361
:011F97002227
:0C26DB00122704EF4E7002FF227F012244
:10184200E4F5809000BEE0FFB40800505F901856A7
:10185200F828287302186E02187402187A02188087
:1018620002188602189002189A0218A4C2A3C2A2F1
:101872008016C2A3C2A2801AC2A3C2A2801EC2A3A1
:10188200C2A28022C2A3D2A2C2A1C2A08020C2A3AD
:10189200D2A2C2A1D2A08016C2A3D2A2D2A1C2A0B9
:1018A200800CC2A3D2A2D2A1D2A08002D2A3C3EF43
:1018B2006480948850299000BEE0FF3395E0FE7466
:1018C200B52FF58274003EF583E0FF3395E0FE7498
:1018D200262FF582741E3EF583E493F580801E90D8
:1018E20000BEE0FFB408133395E0FE74B52FF58215
:1018F20074003EF583E0F5808003E4F5809000B447
:10190200E0FF9000BEE004FEF0D3EF6480F8EE64E6
:1019120080984014E0D36480948850047408F022C4
:091922009000B3E09000BEF02239
:1025E700E4F5937594FF5395F043960F90002A7482
:0B25F700FFF0A37418F0A37442F02260
:0926FB009000B3EFF0A3EDF02212
:102551009000B5EFF0A3EDF0A3EBF0A3E512F0A32B
:10256100E513F0A3E514F0A3E515F0A3E516F022B9
:062731009000BDEFF02254
:100FC100011F004900C0949400949400949400413E
:030FD10000BF1E40
:0212E60015737E
:1012E80020B2069000C0E014F020B3069000C3E0DE
:1012F80014F02097069000C6E014F09000BFE014A8
:10130800F06003021406741EF0A873E4F6A873E6EE
:10131800FFC3648094834003021406EF3395E0FE14
:101328009000C075F003EF1208EDEE75F003A425E8
:1013380083F583E0C3948050399000C175F003EFC2
:101348001208EDEE75F003A42583F583E0D39480AD
:10135800405AE6FF3395E0FE9000C275F003EF12A5
:1013680008EDEE75F003A42583F5837401F0F51FED
:10137800803AA873E6FF3395E0FE9000C175F0034C
:10138800EF1208EDEE75F003A42583F583E0C3940E
:101398008050199000C275F003EF1208EDEE75F059
:1013A80003A42583F5837402F0751F01A873E6FF73
:1013B800FD3395E0FC9000C075F003ED1208EDECEC
:1013C80075F003A42583F583E0FE9000C175F00352
:1013D800ED1208EDEC75F003A42583F583EEF0EF2C
:1013E8003395E0FE9000C075F003EF1208EDEE753E
:0E13F800F003A42583F5837494F00602131508
:0314060005732249
:0226BF00157391
:0926C100A873A61FE4F51FE6FF53
:0326CA0005732273
:1025910090003074FFF0A37426F0A374BFF0900094
:0D25A1002D74FFF0A37412F0A374E6F02275
:10227000EF600764016003BF0233EFFD3395E0FCBC
:102280009000C275F003ED1208EDEC75F003A42583
:1022900083F583E0FE9000C275F003ED1208EDECCB
:0F22A00075F003A42583F583E4F0AF06227F03D6
:0122AF00220C
:100FD4004100000A4100290A41006D0A0460000032
:100FE40000000168004600670000FFFF8FFFC10A90
:100FF400C105C108C101C10B60240005FF000AFF3F
:10100400000AFF000AFF000AFF000AFF000AFF00AF
:101014000AFF000AFF000AFF000AFF000AFF000A95
:101024006036002AFF000AFF000AFF0020FF000AC2
:10103400FF0020FF000AFF0020FF000AFF000AFF54
:10104400000AFF0020FF0020FF0020FF0020FF0017
:0A1054000AFF000AFF000AFF000A6D
:01000A0022D3
:030020007F00223C
:10219F00438E805389F07BE07A2879017800901E76
:1021AF00221208D112222CEFF404F58A7BE07A2850
:1021BF0079017800901E221208D112222CC3E49FBD
:1021CF00FFE49EFE74019DFDE49CFC78081208BD9F
:0721DF008F8CD28CD2A922E3
:03000B00022107C8
:04210700C0E0C0D0A4
:10210B00D55A0A755A4C300A020568D20AA20372D4
:10211B00045032155CE55C702C855E5CD20730098F
:10212B0017E55F6007155F438F018019538FFEC260
:10213B00B5D56A11C209800D055DE55DD3940640E6
:05214B0004D206C203EE
:05215000D0D0D0E03208
:1020B400300B47C20B901E221208D178101208BDB3
:1020C4008E6E8F6F900003E0FEA3E0FFE4FCFD7BC7
:1020D40019FAF9F812078DC006C007AE6EAF6FABE0
:1020E40007AA06E4F9F8D007D00612222C780312C6
:1020F40008BD900065EEF0A3EFF0900065E0FEA34C
:02210400E0FFFA
:0121060022B6
:09270400900067E0FEA3E0FF2253
:09270D00900067EEF0A3EFF0224A
:10003E0090006BEEF0A3EFF0900069ECF0A3EDF002
:01004E00228F
:03002600C2B4223F
:03003B00021AA204
:101AA200C0E0C083C082C0D075D000C004C005C0F1
:031AB20006C00764
:101AB50030DF04C2DF807D30DA04C2DA807630D9C7
:101AC5003DC2D9AFFBEFFEADEB7C00E42DFFEC3E54
:101AD50020000E900001F0A3EFF075DB11D200801D
:101AE50053FE900001E0FCA3E0FDC3EF9DFFEE9CDB
:101AF500A3F0A3EFF075DB00C200D20B803630D81F
:101B050033C2D8900067E07002A3E06022B2B490BF
:101B15000069E0FEA3E0F5EAEEF5FAA3E0FEA3E036
:101B2500FF90006AE02FF0900069E03EF08005C26A
:041B3500B453DAFECD
:101B3900D007D006D005D004D0D0D082D083D0E051
:011B49003269
:0627370012219FD2AF2227
:101D0E003004047F0180027F002009047E018002DE
:101D1E007E00EE5F6074E569C3955B5068300236F5
:101D2E00755F01E569131313541FAB6BAA6CA96D94
:101D3E00F582758300120680FFE569540704FEEFF5
:101D4E00A806088002C333D8FC30D705756A038015
:101D5E002F756A01802AAB6BAA6CA96D75F002E52E
:101D6E0069A4F58285F083120680F55FE56975F04A
:101D7E0002A429F9EA35F0FA900001120680F56AFC
:0A1D8E000569D20922C204438F1038
:011D98002228
:10192B00900000E014F0701F740AF0D205900029AB
:10193B00E014F07012740AF0D20890006DE014F00D
:10194B007005740AF0D20190002AA3E0FAA3E0F923
:10195B001208F990002DA3E0FAA3E0F91208F99010
:10196B000039A3E0FAA3E0F91208F9900045A3E0CF
:10197B00FAA3E0F91208F9900054A3E0FAA3E0F9F6
:10198B001208F990005DA3E0FAA3E0F91208F990B0
:10199B000005A3E0FAA3E0F91208F990004BA3E0CD
:1019AB00FAA3E0F91208F9EF600C90001DA3E0FA1E
:1019BB00A3E0F91208F990004EA3E0FAA3E0F912A4
:1019CB0008F9EF600C900020A3E0FAA3E0F91208ED
:1019DB00F9900051A3E0FAA3E0F91208F9EF600CBB
:0D19EB00900023A3E0FAA3E0F91208F9220E
:101BEF0090003FA3E0FAA3E0F91208F9900042A396
:101BFF00E0FAA3E0F91208F9900033A3E0FAA3E0AA
:101C0F00F91208F9900008A3E0FAA3E0F91208F915
:101C1F00900030A3E0FAA3E0F91208F9EF600C90FE
:101C2F000011A3E0FAA3E0F91208F9900036A3E03F
:101C3F00FAA3E0F91208F9EF600C900017A3E0FA8D
:101C4F00A3E0F91208F9900048A3E0FAA3E0F91213
:101C5F0008F9EF600C90001AA3E0FAA3E0F912085C
:101C6F00F930060EC206900026A3E0FAA3E0F9129F
:031C7F0008F9223F
:1022B00090000BA3E0FAA3E0F91208F990003CA308
:1022C000E0FAA3E0F91208F9EF600C900014A3E023
:1022D000FAA3E0F91208F9900057A3E0FAA3E0F995
:0F22E0001208F990005AA3E0FAA3E0F90208F9F6
:10246500AF63AE62AD61AC609000601208E19000B0
:1024750064E568F0E4F563F562F561F560F568908B
:0B248500000EA3E0FAA3E0F90208F942
:10232E00300705C207121D0E300A05C20A12192BFC
:10233E00300505C205121BEF300805C2081222B087
:10234E00300105C201122465E5632401F563E4350D
:0E235E0062F562E43561F561E43560F56022F8
:101EA3008B0F8A108911EFB40C005070901EB6F896
:101EB300282873021EDA021EDF021EE4021EE90254
:101EC3001EEE021EF3021EF8021EFD021F02021F77
:101ED30007021F0C021F1190000580359000088037
:101EE3003090000B802B90000E80269000118021F3
:101EF300900017801C900014801790001A80129095
:101F0300001D800D90002080089000238003900026
:0D1F130026E50FF0A3E510F0A3E511F02284
:072716007B017A00796022CB
:07105E000172004100D20005
:0D002E0020A4097572019000D27401F02227
:0226CD00157383
:0926CF00A873A672E4F572E6FF9F
:0326D80005732265
:1025AE0090003C74FFF0A37426F0A374CDF090005D
:0D25BE003974FFF0A37400F0A3742EF02216
:022676001573DA
:0A2678009000D2E0A873F6FFE4F032
:03268200057322BB
:1011C00000C400DC00F701060126014A0172018813
:1011D00001B801EE020B024B029302E4031003700C
:1011E00003DC04160497052605C800DC00F701158A
:1011F0000126014A0172019F01B801EE022A024B49
:10120000029302E4033F037003DC045504970526B0
:1012100005C8067D00F701150137014A0172019FDB
:1012200001D201EE022A026E029302E4033F03A4FC
:1012300003DC045504DD057505C8067D0749010674
:101240000126014A015D018801B801EE020B024B43
:10125000029302BA0310037003DC041604970526F8
:101260000575062006E007B80126014A01720188CB
:1012700001B801EE022A024B029302E4031003704C
:1012800003DC04550497052605C8062006E007B8C8
:1012900008AA014A0172019F01B801EE022A026EFA
:1012A000029302E4033F037003DC045504DD0526CA
:1012B00005C8067D06E007B808AA09B9015D0188DE
:1012C00001B801D2020B024B029302BA0310037061
:1012D00003A40416049705260575062006E00749B1
:0612E000082D092D0A4D46
:101065004D00A60300000000000000000000000085
:0619F8008F0F8D108B1112
:1019FE001226DBEF60037F0122E511D3940040062F
:101A0E00E51194114028E511D394174006E5119481
:101A1E0021401BE511D394274006E5119431400E69
:101A2E00E511D394375007E50FC394F950037F03A4
:101A3E0022E511603DC4540F75F007A4FDACF0E52E
:101A4E000F75F015A42DFFE5F03CFEE51154077C53
:101A5E00002FFFEC3EFEEF25E0FFEE33FE74D62F97
:101A6E00F58274E83EF583E493F513740193F5144F
:101A7E008005E4F513F514AF127E007C017D77121C
:101A8E0006CFAD101C1206E1AD07AC06AF14AE13B7
:031A9E00121F20F4
:011AA1002222
:0408FF0015731573E5
:100903001226DBEF70047F0180027F009000A6E0D7
:10091300FEB402047D0180027D00ED5F6003020BE3
:10092300F0EEB4030AE49000A4F0A3F0020BF090FD
:1009330000A7E0FFB4F3047E0180027E00EFB4F170
:10094300047F0180027F00EF4E603E9000A9E0FE2D
:1009530075F06484FFEE75F00A8475F00A84ADF0D7
:10096300E075F00A84ABF075120A9000A8E0240742
:10097300F5139000A3E0FEC4540F240AF514751573
:100983000AEE5407F5161225519000A7E0FFB4F3C1
:10099300047E0180027E00EFB4F2047F0180027FB7
:1009A30000EF4E7003020A499000A9E0FD7C007E2F
:1009B300177F701206E1A873A607E6F975F002A483
:1009C300FFC39000B2E09F9000B1E095F05070E05B
:1009D300FEA3E0FF7C007D0B1206CFE9FBFD1206B0
:1009E300E1A87308A6079000B1E475F00112074C63
:1009F300FED3E5F09BEE94004018A87308E624F9B3
:100A0300FFE47EF0A807088005CEC313CE13D8F900
:100A1300801FA87308E6FF740F7E00A807088005EF
:100A2300C333CE33CED8F97804CEA2E713CE13D88E
:100A3300F8A87308F6A87308E6FF1227318007E4C5
:100A43009000B1F0A3F09000ADE0FEA3E0FFC390EF
:100A530000B0E09F9000AFE09E4003020BEA122635
:100A6300DBEF6003020BF09000AAE0FBA3E0FAA324
:100A7300E0F99000AFE0FEA3E0F5828E83120680DA
:100A8300FFD394375003020B85EF241024FC5079D5
:100A9300604524FE7003020B30147003020B4624DE
:100AA300026003020B749000AAE0FBA3E0FAA3E048
:100AB300F99000AFE475F00112073685F082F583F3
:100AC3001206809000A8F09000B0E004F0709890B7
:100AD30000AFE004F080909000AAE0FBA3E0FAA34B
:100AE300E0F99000AFE475F00112073685F082F566
:100AF300831206809000A9F09000B0E004F0706EBD
:100B03009000AFE004F0020A6A9000AAE0FBA3E0C1
:100B1300FAA3E0F99000AFE475F00112074C85F0F9
:100B230082F5831206809000A7F0020A6A9000AF54
:100B3300E475F001120736AFF09000A4F0A3EFF0D4
:100B4300020A6A9000A4E0FEA3E0FF4E6012900048
:100B5300AFEEF0A3EFF0E49000A4F0A3F0020A6A72
:100B63009000B0E004F070069000AFE004F0020AD9
:100B73006A9000B0E004F070069000AFE004F00269
:100B83000A6A9000ADE0FEA3E0FFC39000B0E09FCF
:100B93009000AFE09E50569000AAE0FBA3E0FAA3BA
:100BA300E0F99000AFE475F00112074C85F082F58F
:100BB300831206809000A3F09000A8E0FFA3E0FD5D
:100BC300A3E0FBA3E0FAA3E0F99000AFE475F00122
:100BD30012074C85F082F583120680F5129000A36C
:0D0BE300E0FB1219F880069000A67403F0E4
:050BF0000573057322EE
:0F26850090004274FFF0A37408F0A374FFF022DA
:10205C009000A6E0B4030DE49000AFF0A3F0A3F061
:10206C00A3F0C20DE51660049000A7F0EF60049099
:10207C0000A9F0ED60049000A8F0E94A60047F012B
:10208C0080027F00E515451460047E0180027E000D
:10209C00EE5F60139000AAEBF0A3EAF0A3E9F0A3C3
:0820AC00E514F0A3E515F02294
:1024E100BF02047E0180027E00BF01047D018002E3
:1024F1007D00ED4EFEBF03047D0180027D00ED4EA7
:0825010060059000A6EFF02236
:06273D009000A6E0FF225F
:041075004100D10164
:10261C00C295E4FEEF1392CC000000D29500EFC3FC
:08262C0013FFC2950EBE08EC7D
:012634002283
:10264E00E4FEEFC313FF30CC03430780D2950000A6
:07265E0000C2950EBE08EB5F
:012665002252
:10243700F07F8512244AA3EFF07F8712244AA3EF87
:03244700F07F899A
:10244A00C296000000C295000000D2960012261C17
:0A245A0012264ED295000000C29633
:012464002255
:03257100A3E0FDE7
:10257400C296000000C295000000D2960012261CEC
:0D258400AF0512261CD295000000C2962261
:07271D007B017A0079CA225A
:1026350078CA7C007D017B007A0079167E007F07D1
:0926450012065AE49000D1F022C3
:10000E00EFD3941F5009EF25E044C1FF02244A7F2D
:02001E000122BD
:10249000AC07AB05ECD3941F501CE4FD7F8E1225D6
:1024A00074EC25E044C0FFAD031225747D807F8E5F
:0924B0001225747F00227F012235
:021B4A00157311
:101B4C009000D1E060447F8112244AA873EFF69094
:101B5C0000CAE06F7003021BECA873E6F07F8312DF
:101B6C00244AA873EFF6A3E06F6075A873E61224FD
:101B7C0037A3EFF07F8D12244A9000D0EFF07F8BCB
:101B8C0012244A9000CFEFF080569000C9E0FF0479
:101B9C00F0EFC3940A4049E4F09000D104F0E4FD66
:101BAC007F8E1225749000CAE0FD7F801225747F11
:101BBC00821225717F84122571A3E0FD7F86122588
:101BCC0074A3E0FD7F88122574A3E0FD7F8A1225A3
:101BDC0074A3E0FD7F8C1225747D807F8E1225749A
:031BEC000573225C
:101744007F8112244A9000CAEFF07F8312244AA3B7
:10175400EF122437A3EFF07F8B12244AA3EFF07F1C
:101764008D12244AA3EFF0E4FD7F8E1225747F1EB0
:1017740012000EEF64A560047F0180027F009000D8
:10178400CAE05480FEA3E0D3945940047D01800252
:101794007D00ED4EFE9000CCE0D394A440047D0186
:1017A40080027D00ED4EFE9000CDE0D394314004E4
:1017B4007D0180027D00ED4EFE9000CEE0D39412B8
:1017C40040047D0180027D00ED4EFE9000CFE0D309
:1017D400940740047D0180027D00ED4EFE9000D010
:1017E400E0D3949940047D0180027D00ED4E4F606A
:1017F4003078167C007D007B007A00790F7E007FB4
:101804000712065A1226357DA57F1E12249078CA27
:101814007C007D017B007A00790F7E007F07120631
:101824005A7DA97F901225747D807F8E1225749035
:0E183400005A74FFF0A3741BF0A3744AF02254
:1026660053B1DF43B220C2B5C2098F5E438F102239
:03005300021F98F1
:101F9800C0E0C083C082C0D075D000C000C001C0FE
:031FA80002C00371
:101FAB00200313D203757108756700757000E55E29
:101FBB00C313F55C8028E57025E0F570E55DC394EF
:101FCB000340020570D57116757108AB64AA65A93B
:101FDB0066856782758300E5701206AD0567755DD2
:011FEB0000F5
:101FEC00D003D002D001D000D0D0D082D083D0E0AA
:011FFC0032B2
:072724008B648A65896622BF
:03004F00AF672276
:102406002003047F0180027F002009047E018002F0
:102416007E00EE5F60188B6B8A6C896DEDC313F5D9
:102426005BC202E4F569538FEFD2047F02227F0379
:012436002283
:1022EF002003047F0180027F002009047E01800209
:1022FF007E00EE5F6026538FEF755F10756A08D210
:10230F0009438F018B6B8A6C896DED75F008A404FE
:0F231F00F55BD202E4F569D2047F02227F03222C
:1025CB002003047F0180027F002009047E0180022A
:0C25DB007E00EE5F60037F00227F012283
:1010790057008C04B00000000000000000000000D0
:0A108900000000000100000000005C
:0300230002163290
:10163200C0E0C0F0C083C082C0D075D000C000C07E
:1016420001C002C003C004C005C006C00730993BF8
:10165200C299900093E0FEA3E0FFC3900092E09F46
:10166200900091E09E501F90008EE0FBA3E0FAA351
:10167200E0F9A3E475F00112074C85F082F58312BC
:101682000680F5998005900095E4F02098030217F2
:1016920029C298900096E0FBA3E0FAA3E0F990003B
:1016A2009BE0FEA3E0FFF5828E83E5991206AD90E2
:1016B20000A1E0FCA3E0FDC3EF9DEE9C504690002C
:1016C20099E0FEA3E0FFED9FEC9E503890009EE073
:1016D200FBA3E0FAA3E0F990009BE0FEA3E0FFF594
:1016E200828E83120680FD900096E0FBA3E0FAA3AF
:1016F200E0F98F828E831206806D600890009B74E1
:10170200FFF0A3F090009BE475F001120736FED3C0
:1017120090009AE095F0900099E09E500A90009B0C
:10172200E4F0A3F0A304F0D007D006D005D004D093
:1017320003D002D001D000D0D0D082D083D0F0D05C
:02174200E03293
:022694001573BC
:0A26960090009DE0A873F6FFE4F049
:0326A0000573229D
:101D99008E0F8F10759850438E40538EFE53890FC6
:101DA900E47B04FAF9F8901E221208D1120818C02F
:101DB90006C007AE0FAF10AB07AA06E4F9F8D007C3
:101DC900D006120818EFF404F58BE47B04FAF9F84D
:101DD900901E221208D1120818C006C007AE0FAF14
:101DE90010AB07AA06E4F9F8D007D006120818C301
:101DF900E49FFFE49EFE74019DFDE49CFC780812BB
:101E090008AA8F8DC2ABD28ED2AC90004E74FFF06F
:091E1900A37426F0A37494F022D6
:1023A200900096EBF0A3EAF0A3E9F0A3ECF0A3ED22
:1023B200F09000A1E517F0A3E518F090009EE51457
:1023C200F0A3E515F0A3E516F0E490009BF0A3F06E
:0323D200A3F02253
:10250900900095E0701F90008EEBF0A3EAF0A3E92C
:10251900F0E4A3F0A3F0A3ECF0A3EDF0A37401F0B1
:08252900D2997F02227F0322F8
:0B26E700900095E07002FF227F0122AE
:03000000021C825D
:0C1C8200787FE4F6D8FD758173021CC960
:10058A00E709F608DFFA8046E709F208DFFA803E53
:10059A0088828C83E709F0A3DFFA8032E309F60840
:1005AA00DFFA8078E309F208DFFA807088828C83A8
:1005BA00E309F0A3DFFA806489828A83E0A3F6085C
:1005CA00DFFA805889828A83E0A3F208DFFA804C36
:1005DA0080D280FA80C680D4806980F2803380100D
:1005EA0080A680EA809A80A880DA80E280CA803376
:1005FA0089828A83ECFAE493A3C8C582C8CCC583EE
:10060A00CCF0A3C8C582C8CCC583CCDFE9DEE780BD
:10061A000D89828A83E493A3F608DFF9ECFAA9F03C
:10062A00EDFB2289828A83ECFAE0A3C8C582C8CC92
:10063A00C583CCF0A3C8C582C8CCC583CCDFEADEAB
:10064A00E880DB89828A83E493A3F208DFF980CC0D
:10065A0088F0EF60010E4E60C388F0ED2402B40406
:10066A000050B9F582EB2402B4040050AF232345AD
:06067A0082239005DA73F3
:10068000BB010CE58229F582E5833AF583E022502F
:1006900006E92582F8E622BBFE06E92582F8E22279
:0D06A000E58229F582E5833AF583E4932293
:1006AD00F8BB010DE58229F582E5833AF583E8F083
:1006BD00225006E92582C8F622BBFE05E92582C82F
:0206CD00F22217
:1006CF00EF8DF0A4A8F0CF8CF0A428CE8DF0A42E3F
:0206DF00FE22F9
:1006E100BC000BBE0029EF8DF084FFADF022E4CCFD
:1006F100F875F008EF2FFFEE33FEEC33FCEE9DECC6
:10070100984005FCEE9DFE0FD5F0E9E4CEFD22ED0B
:10071100F8F5F0EE8420D21CFEADF075F008EF2F55
:10072100FFED33FD4007985006D5F0F222C398FD46
:050731000FD5F0EA22E3
:10073600C5F0F8A3E028F0C5F0F8E582158270024E
:060746001583E038F022EB
:10074C00A3F8E0C5F025F0F0E58215827002158360
:06075C00E0C838F0E822BD
:10076200BB010A89828A83E0F5F0A3E02250068762
:10077200F009E71922BBFE07E3F5F009E319228924
:0B078200828A83E493F5F07401932257
:10078D00E88FF0A4CC8BF0A42CFCE98EF0A42CFC0B
:10079D008AF0EDA42CFCEA8EF0A4CDA8F08BF0A489
:1007AD002DCC3825F0FDE98FF0A42CCD35F0FCEBE8
:1007BD008EF0A4FEA9F0EB8FF0A4CFC5F02ECD39AD
:0F07CD00FEE43CFCEAA42DCE35F0FDE43CFC221A
:1007DC0075F008758200EF2FFFEE33FECD33CDCCD4
:1007EC0033CCC58233C5829BED9AEC99E582984057
:1007FC000CF582EE9BFEED9AFDEC99FC0FD5F0D634
:10080C00E4CEFBE4CDFAE4CCF9A88222B800C1B95D
:10081C000059BA002DEC8BF084CFCECDFCE5F0CB9B
:10082C00F97818EF2FFFEE33FEED33FDEC33FCEBD4
:10083C0033FB10D703994004EB99FB0FD8E5E4F98F
:10084C00FA227818EF2FFFEE33FEED33FDEC33FC7C
:10085C00C933C910D7059BE99A4007EC9BFCE99A70
:10086C00F90FD8E0E4C9FAE4CCFB2275F010EF2FB5
:10087C00FFEE33FEED33FDCC33CCC833C810D707B5
:10088C009BEC9AE899400AED9BFDEC9AFCE899F8F0
:0E089C000FD5F0DAE4CDFBE4CCFAE4C8F92283
:10222C00C2D5E830E70FB2D5E4C39BFBE49AFAE4DD
:10223C0099F9E498F8EC30E717B2D512226212083B
:10224C0018E4C39BFBE49AFAE499F9E498F8800348
:10225C0012081830D50DE4C39FFFE49EFEE49DFDEB
:04226C00E49CFC22D0
:1008AA00E8600FECC313FCED13FDEE13FEEF13FF2C
:0308BA00D8F12250
:1008BD00E86010ECA2E713FCED13FDEE13FEEF1351
:0408CD00FFD8F0223E
:1008D100E493FC740193FD740293FE740393FF226D
:0C08E100ECF0A3EDF0A3EEF0A3EFF0228A
:0C08ED00A42582F582E5F03583F5832216
:0608F9008A838982E4738A
:101C8E00021409E493A3F8E493A34003F68001F24F
:101C9E0008DFF48029E493A3F85407240CC8C33357
:101CAE00C4540F4420C8834004F456800146F6DF26
:101CBE00E4800B0102040810204080900F57E47E50
:101CCE00019360BCA3FF543F30E509541FFEE4931B
:101CDE00A360010ECF54C025E060A840B8E493A3E2
:101CEE00FAE493A3F8E493A3C8C582C8CAC583CA0D
:101CFE00F0A3C8C582C8CAC583CADFE9DEE780BEC5
:01109300005C
:00000001FF
