:101E370000A8C0003F065B4F666D7D077F6F0008F7
:101E470040014148BF86DBCFE6EDFD87FFEFF63166
:101E5700183120270831083208310826083118318F
:101E67002027083108320831082508261826282493
:101E770008250826082508240823482310250825AF
:101E870018221023082408250826082708310827C0
:101E970008260825300008230821082540160816BB
:101EA7001021082130F5FDF464F730000906090117
:011EB7002109
:100F5700012F00015900014E00012D00012700015A
:100F67004D000151AA0845000102030405060701C7
:100F7700250001320001290002220000023B000087
:100F8700013A00013900012E000158000126000135
:100F97002B00013101012800012C00015200013012
:010FA7000049
:10201200120003E92406F9E43AFA120762754F0046
:10202200F55075450175490A75480A75470A75469E
:102032000AAE4FFF7C007D641206E18F4AAE4FAFBD
:10204200507C007D641206E17E007F0ACFCDCFCEA8
:10205200CCCE1206E18F4BAE4FAF507C007D0A1200
:0F20620006E18D4C753901752801AF390227460B
:10216A00854812854913854A14854B15854C16AB4B
:10217A0047AD46AF45122566E52BB40123E4F528A1
:10218A00E52FC394325004052F8015E531C394809E
:10219A005008E53125E0F5318003753101E4F52F6A
:0A21AA00E5287005AF311227462228
:10109400E552600E752B017D0A7C007F107E2712BD
:1010A4001F35E52D64017044054EE54ED39405408B
:1010B4003BE545045407F545E546045407F546E584
:1010C40047045407F547E548045407F548E549043F
:1010D4005407F549E54A045407F54AE54B04540717
:1010E400F54BE54C045407F54CE4F54EE54D70031F
:1010F4000211BF053AE53A64287027E55964037084
:1011040021E52C701DF52D754501122012E529608D
:101114000AE4F52974452525F8A632E4F54DF53A97
:10112400F559E53A64287039E55964047033E52CBF
:10113400702FF539F52D753001752901F54DF53A06
:10114400F55975450275490A75480A75470A754681
:101154000A75250574452525F8E6F532741026F63A
:1011640022E53A64287042E5596405703CE52C7028
:1011740038F539F52D754503E529600AE4F5297438
:10118400452525F8A632754C0A754B0A754A0A7529
:10119400490A75480A75470A75460A752601E4F531
:1011A4004DF53AF559752B0122E53AD39428400BB5
:0C11B400E4F539F52DF54DF53AF559221A
:100056007F01122285EF64016003020114F52BF57E
:100066002DF528E539700CE52E7008E5267004E5B7
:10007600296020E52C701CF545F546F547F548F551
:1000860049F54AF54BF54CF539F52EF526F5297562
:10009600310122E52C60057F020224F6E52C60037F
:1000A60002058975450575490A75480A75470A7531
:1000B600460AE5587018FF12000E8F4A7F0112009B
:1000C6000E8F4B7F0212000E8F4C75580122E55899
:1000D600B401197F0312000E8F4A7F0412000E8F9F
:1000E6004B7F0512000E8F4C75580222E5586402AC
:1000F60060030205897F0612000E8F4A7F071200F1
:100106000E8F4B7F0812000E8F4CE4F55822E4FF49
:10011600122285EF64016003020589E52C60030263
:100126000589E5266401704AF558F52B753DAAF553
:100136003EFF12000E8F3F7F0112000E8F407F029E
:1001460012000E8F417F0312000E8F427F041200B1
:100156000E8F437F0512000E8F447B007A00793D97
:100166007D08122304E4F5267D1EFC7FE87E03024B
:100176001F35E5586402600302030D7545067F03CB
:1001860012000E7E00C006C007E4FF12000EEFFD4F
:10019600D0E02DFBD0E03400FAAE3BAF3C7C007DD6
:1001A600641206E1EF2BFFEE3AFE7C007D0A120692
:1001B600E18F338F477F0312000E7E00C006C00713
:1001C600E4FF12000EEFFDD0E02DFBD0E03400FA84
:1001D600AE3BAF3C7C007D641206E1EF2BFFEE3AAE
:1001E600FE7C007D0A1206E1AF058F348F487F043E
:1001F60012000E7E00C006C0077F0112000EEFFD42
:10020600D0E02DFBD0E03400FAAE3BAF3C7C007D65
:10021600641206E17E007F0ACFCDCFCECCCE120689
:10022600E1EF2BFFEE3AFE7C007D0A1206E18F35E8
:100236008F497F0412000E7E00C006C0077F0112A0
:10024600000EEFFDD0E02DFBD0E03400FAAE3BAF60
:100256003C7C007D641206E17E007F0ACFCDCFCEC6
:10026600CCCE1206E1EF2BFFEE3AFE7C007D0A12A1
:1002760006E1AF058F368F4A7F0512000E7E00C05D
:1002860006C0077F0212000EEFFDD0E02DFBD0E086
:100296003400FAAE3BAF3C7C007D0A1206E1ED2B42
:1002A600FFEC3AFE7C007D0A1206E18F378F4B7F0A
:1002B6000512000E7E00C006C0077F0212000EEF78
:1002C600FDD0E02DFBD0E03400FAAE3BAF3C7C0025
:1002D6007D0A1206E1ED2BFFEC3AFE7C007D0A1248
:1002E60006E1AF058F388F4C7D1E7C007FE87E03CC
:1002F600121F351226FCEF6003020589FB7A00798E
:10030600337D06FC02251EE5397008F558754D014A
:10031600055922E53964017027F558752B01754595
:100326000175490A75480A75470A75460A7525050D
:1003360075290174452525F8E6F532741026F6224E
:10034600E539B40207E4F558752B0122E539640353
:1003560060030204A8F558F52B752801AF3912275A
:1003660046AE22AF237C007D641206E1AA06AB07E7
:10037600AE4FAF507C007D641206E1EF2BFBEE3AE8
:10038600FAAE3BAF3C7C007D641206E1EF2BFBEE40
:100396003AFA7C007D0AAF03FE1206E18F338F47DF
:1003A6007C007D0AAF03AE021206E1AF058F348FE3
:1003B60048AE22AF237C007D641206E17E007F0AF0
:1003C600CFCDCFCECCCE1206E1AA06AB07AE4FAF4D
:1003D600507C007D641206E17E007F0ACFCDCFCE31
:1003E600CCCE1206E1EF2BFBEE3AFAAE3BAF3C7CED
:1003F600007D641206E17E007F0ACFCDCFCECCCE43
:100406001206E1EF2BFBEE3AFA7C007D0AAF03FE03
:100416001206E18F358F497C007D0AAF03AE0212CA
:1004260006E1AF058F368F4AAE22AF237C007D0AE8
:100436001206E1AA04AB05AE4FAF507C007D0A124E
:1004460006E1ED2BFBEC3AFAAE3BAF3C7C007D0AB5
:100456001206E1ED2BFBEC3AFA7C007D0AAF03FEB7
:100466001206E18F378F4B7C007D0AAF03AE021276
:1004760006E1AF058F388F4C7D1E7C007FE87E033A
:10048600121F351226FCEF700BFB7A0079337D06BE
:10049600FC12251E753904E4F52B752801AF3902C7
:1004A6002746E53964046003020589F558AE4FAF67
:1004B60050FC7D641206E1AD07E4FF1224A5AE4FA1
:1004C600AF507C007D641206E17E007F0ACFCDCF5F
:1004D600CECCCE1206E1AD077F011224A5AE4FAFFA
:1004E600507C007D0A1206E17F021224A5AE22AFDF
:1004F600237C007D641206E1AD077F031224A5AEBE
:1005060022AF237C007D641206E17E007F0ACFCDF8
:10051600CFCECCCE1206E1AD077F041224A5AE22C3
:10052600AF237C007D0A1206E17F051224A5AE3BAF
:10053600AF3C7C007D641206E1AD077F061224A560
:10054600AE3BAF3C7C007D641206E17E007F0ACFA5
:10055600CDCFCECCCE1206E1AD077F071224A5AED5
:100566003BAF3C7C007D0A1206E17F081224A5EF12
:100576007003754508E4F52B7528017F051227469B
:04058600E4F539223D
:100BF5007F031221FBEF64016003020CCDE529049C
:100C05005401F5296003020C8D74452525F8A6329B
:100C1500E5306018AD4A7F0A1224A5AD4B7F0B1253
:100C250024A5AD4C7F0C1224A5E4F530E52C6064B9
:100C35007F0A12000EEF654A70287F0B12000EEF37
:100C4500B54B1F7F0C12000EEFB54C1675450AE427
:100C5500F52CF552F52B753101F5397F031224F684
:100C6500803275520175490A75480A75470A7546F5
:100C75000A75450A75250574452525F8E6F5327486
:100C85001026F6752901800C74452525F8E6F53200
:100C9500741026F6E53964016003020DAAF52BE50B
:100CA5004B75F00AA47C00254CFDEC35F0FCE54ABB
:100CB50075F064A4AEF02DF523EE3CF522753902EE
:100CC500752801AF39022746E5296401701D7F01AA
:100CD5001221FBBF0115E525C394074003020DAAA8
:100CE50074452525F8A63205258021E5296401707E
:100CF500287F041221FBBF0120E525D39400500372
:100D0500020DAA74452525F8A63215257445252515
:100D1500F8E6F532741026F622E529B401197F05A7
:100D25001221FBBF011174452525F8E624F0C39473
:100D350009507205320622E529B401197F021221F4
:100D4500FBBF011174452525F8E624F0D394004036
:100D55005415321622E4FF1221FBEF64017046E5BB
:100D65002C7042E5397008E5587004E5266007E403
:100D7500F558F539F526752E01752B01752D01E50B
:100D850029600AE4F52974452525F8A632E4F545D8
:100D9500754601754702754803754904754A057519
:060DA5004B06754C07220D
:10153300E4F52DF52BE5396402703985424A85437C
:101543004B85444CF52FE54B75F00AA4FDACF0E553
:101553004A75F064A42DFFE5F03CFE7C00EF254CBA
:10156300F53CEC3EF53B753903E4F52B752801AFEB
:1015730039022746E5586402702D75450685424AAF
:1015830085434B85444CE54B75F00AA4FDACF0E56F
:101593004A75F064A42DFFE5F03CFE7C00EF254C7A
:1015A300F53CEC3EF53B22E52E6401600302164652
:1015B30075450475490A75480A75470A75460AFF51
:1015C30012000EE53F75F00AA42540C39FFFC00734
:1015D3007F0312000EC3D0E09FF54AF5367F011258
:1015E300000EE54175F00AA42542C39FFFC0077FA3
:1015F3000412000EC3D0E09FF54BF5377F021200B3
:101603000EE54375F00AA42544C39FFFC0077F0579
:1016130012000EC3D0E09FF54CF538E4F535F534F0
:10162300F5331226FCEF700BFB7A0079337D06FC51
:1016330012251EE4F52E7531017D1EFC7FE87E0325
:04164300121F35221B
:1026170012268BEF6013E52C600F122752BF0204BE
:0A2627007F0180027F021224F622D8
:1023810012004FEF602FE53D64AA7029AD3FFF12A7
:1023910024A5AD407F011224A5AD417F021224A5E1
:1023A100AD427F031224A5AD437F041224A5AD44A1
:0623B1007F051224A522A5
:1011C00078087C007D007BFF7A1E79B17E007F0766
:1011D00012065A1225FC1225A612254612269A7FBF
:1011E000981223EA7F807E25121DAE1225C3780F48
:1011F0007C007D007B007A0079087E007F07120664
:101200005A1217597F2B12267B7BFF7A1079947F15
:1012100002121EB87BFF7A21796AE4FF121EB87BA6
:10122000FF7A0079567F04121EB87BFF7A0B79F59E
:101230007F07121EB87BFF7A1579337F09121EB81B
:101240007BFF7A2679177F06121EB87BFF7A2379F7
:10125000817F0B121EB87D07E4FF12271075140062
:101260007515007516517517007518017B007A0009
:10127000793D7D087C001223B77B007A00793D120E
:10128000273975245A752AFC752C017D017F0A12B5
:1012900024A57D027F0B1224A57D037F0C1224A5BB
:1012A000E4F54575490A75480A75470A75460AF511
:1012B0004CF54BF54A75250574452525F8E6F532BC
:1012C000741026F67529017F021224F67BFF7A1E20
:1012D000795575140075155C7516F0AD2AAF24129A
:0A12E000207112274C12234380FBFB
:092707008B88898C88898F8889F0
:100FA80052007A86860086860086860086860086B7
:090FB800860086860041006F09E5
:03002B0002274069
:0627400053BCEFD20C3285
:020DAB001573BE
:100DAD00200C03020F54C20C90006EE0B4090040F9
:100DBD0003020F36900DC8F8282873020E0F020D8E
:100DCD00E3020DF5020E21020DE3020DF5020E38C0
:100DDD00020DE3020DF5AFBDEFFEADBE7C00E42DBF
:100DED00FFEC3E900070803CAFBDEFFEADBE7C00D1
:100DFD00E42DFFEC3E900072F0A3EFF0751D0102A3
:100E0D000F3CAFBDEFFEADBE7C00E42DFFEC3E9080
:100E1D0000748010AFBDEFFEADBE7C00E42DFFEC85
:100E2D003E900076F0A3EFF0020F3CAFBDEFFEADAC
:100E3D00BE7C00E42DFFEC3E900078F0A3EFF09027
:100E4D000078E0FEA3E07807CEC313CE13D8F9A83F
:100E5D0073F6C394065013A873E675F003A4247AB1
:100E6D00F582E43400F583E014F090006FE014F0A7
:100E7D006003020F3C7409F0A873E4F6A873E6FF53
:100E8D00C394064003020F3CEF75F003A4247AF5DA
:100E9D0082E43400F583E0C39480502AE6FF75F0B8
:100EAD0003A4247BF582E43400F583E0D3948040E1
:100EBD0040EF75F003A4247CF582E43400F58374CF
:100ECD0001F0F51E802BA873E6FF75F003A4247BBB
:100EDD00F582E43400F583E0C394805014EF75F08F
:100EED0003A4247CF582E43400F5837402F0751EAE
:100EFD0001A873E6FF75F003A4247AF582E43400AB
:100F0D00F583E0FEEF75F003A4247BF582E4340055
:100F1D00F583EEF0E675F003A4247AF582E434004F
:100F2D00F5837486F006020E8990006E74FFF090C2
:100F3D00006EE0D39408400374FFF090006EE0045F
:070F4D00F090270793F5BCAB
:030F540005732200
:0226B800157398
:0926BA00A873A61EE4F51EE6FF5C
:0326C3000573227A
:0226C60015738A
:0926C800A873A61DE4F51DE6FF50
:0326D1000573226C
:1023EA008F9D75BC88439720D2AD90004574FFF04D
:1023FA00A3740DF0A374ABF0A374FFF0A37426F0DA
:10240A00A374B8F0A374FFF0A37426F0A374C6F003
:01241A00229F
:070003007B017A00797022F5
:1021FB00C3EF64809480403BD3EF6480948550336D
:10220B00EFFD3395E0FC90007C75F003ED1208EDCB
:10221B00EC75F003A42583F583E0FE90007C75F04C
:10222B0003ED1208EDEC75F003A42583F583E4F0C0
:05223B00AF06227F0345
:01224000227B
:0424CE0015731573FA
:1024D200122719A873A60608A607A873E6FE08E63F
:0F24E200FF4E600BEF24FFFFEE34FFFE122722A8
:0524F1000573057322D4
:1025460053B1EF43B210120026E4F5D975DA49D239
:10255600DE90003F74FFF0A37424F0A374CEF02243
:081F35008E158F168C178D1814
:101F3D00122719EF4E7066AF18AE17122722C3E5A0
:101F4D0016940AE5159400404BE47B18FAF9F890C5
:101F5D001E371208D1120818C006C007AE15AF16ED
:101F6D00AB07AA06E4F9F8D007D006120818AB079C
:101F7D00AA06AFF9EFFEADE97C00E42DFFEC3ECFF4
:101F8D002BCF3AAD07FCAF03AE0212003ED2D843C1
:0F1F9D00DA01800612002653DAFE7F02227F034C
:011FAC002212
:0C26F000122719EF4E7002FF227F01221A
:10185700E4F5809000BEE0FFB40800505F90186B7D
:10186700F828287302188302188902188F0218951E
:1018770002189B0218A50218AF0218B9C2A3C2A288
:101887008016C2A3C2A2801AC2A3C2A2801EC2A38C
:10189700C2A28022C2A3D2A2C2A1C2A08020C2A398
:1018A700D2A2C2A1D2A08016C2A3D2A2D2A1C2A0A4
:1018B700800CC2A3D2A2D2A1D2A08002D2A3C3EF2E
:1018C7006480948850299000BEE0FF3395E0FE7451
:1018D700B52FF58274003EF583E0FF3395E0FE7483
:1018E7003B2FF582741E3EF583E493F580801E90AE
:1018F70000BEE0FFB408133395E0FE74B52FF58200
:1019070074003EF583E0F5808003E4F5809000B431
:10191700E0FF9000BEE004FEF0D3EF6480F8EE64D1
:1019270080984014E0D36480948850047408F022AF
:091937009000B3E09000BEF02224
:1025FC00E4F5937594FF5395F043960F90002A746D
:0B260C00FFF0A37418F0A37457F02235
:092710009000B3EFF0A3EDF022FC
:102566009000B5EFF0A3EDF0A3EBF0A3E512F0A316
:10257600E513F0A3E514F0A3E515F0A3E516F022A4
:062746009000BDEFF0223F
:100FC100011F004900C0949400949400949400413E
:030FD10000BF1E40
:02141000157352
:1014120020B2069000C0E014F020B3069000C3E0B2
:1014220014F02097069000C6E014F09000BFE0147C
:10143200F06003021530741EF0A873E4F6A873E698
:10144200FFC3648094834003021530EF3395E0FEBE
:101452009000C075F003EF1208EDEE75F003A425BD
:1014620083F583E0C3948050399000C175F003EF97
:101472001208EDEE75F003A42583F583E0D3948082
:10148200405AE6FF3395E0FE9000C275F003EF127A
:1014920008EDEE75F003A42583F5837401F0F51FC2
:1014A200803AA873E6FF3395E0FE9000C175F00321
:1014B200EF1208EDEE75F003A42583F583E0C394E3
:1014C2008050199000C275F003EF1208EDEE75F02E
:1014D20003A42583F5837402F0751F01A873E6FF48
:1014E200FD3395E0FC9000C075F003ED1208EDECC1
:1014F20075F003A42583F583E0FE9000C175F00327
:10150200ED1208EDEC75F003A42583F583EEF0EF00
:101512003395E0FE9000C075F003EF1208EDEE7512
:0E152200F003A42583F5837494F00602143FB1
:031530000573221E
:0226D40015737C
:0926D600A873A61FE4F51FE6FF3E
:0326DF000573225E
:1025A60090003074FFF0A37426F0A374D4F090006A
:0D25B6002D74FFF0A37414F0A37410F02234
:10228500EF600764016003BF0233EFFD3395E0FCA7
:102295009000C275F003ED1208EDEC75F003A4256E
:1022A50083F583E0FE9000C275F003ED1208EDECB6
:0F22B50075F003A42583F583E4F0AF06227F03C1
:0122C40022F7
:100FD4004100000A4100290A41006D0A0460000032
:100FE40000000168004600670000FFFF8FFFC10A90
:100FF400C105C108C101C10B60240005FF000AFF3F
:10100400000AFF000AFF000AFF000AFF000AFF00AF
:101014000AFF000AFF000AFF000AFF000AFF000A95
:101024006036002AFF000AFF000AFF0020FF000AC2
:10103400FF0020FF000AFF0020FF000AFF000AFF54
:10104400000AFF0020FF0020FF0020FF0020FF0017
:0A1054000AFF000AFF000AFF000A6D
:01000A0022D3
:030020007F00223C
:1021B400438E805389F07BE07A2879017800901E61
:1021C400371208D1122241EFF404F58A7BE07A2811
:1021D40079017800901E371208D1122241C3E49F7E
:1021E400FFE49EFE74019DFDE49CFC78081208BD8A
:0721F4008F8CD28CD2A922CE
:03000B0002211CB3
:04211C00C0E0C0D08F
:10212000D55A0A755A4C300A020568D20AA20372BF
:10213000045032155CE55C702C855E5CD20730097A
:1021400017E55F6007155F438F018019538FFEC24B
:10215000B5D56A11C209800D055DE55DD3940640D1
:0521600004D206C203D9
:05216500D0D0D0E032F3
:1020C900300B47C20B901E371208D178101208BD89
:1020D9008E6E8F6F900003E0FEA3E0FFE4FCFD7BB2
:1020E90019FAF9F812078DC006C007AE6EAF6FABCB
:1020F90007AA06E4F9F8D007D0061222417803129C
:1021090008BD900065EEF0A3EFF0900065E0FEA336
:02211900E0FFE5
:01211B0022A1
:09271900900067E0FEA3E0FF223E
:09272200900067EEF0A3EFF02235
:10003E0090006BEEF0A3EFF0900069ECF0A3EDF002
:01004E00228F
:03002600C2B4223F
:03003B00021AB7EF
:101AB700C0E0C083C082C0D075D000C004C005C0DC
:031AC70006C0074F
:101ACA0030DF04C2DF807D30DA04C2DA807630D9B2
:101ADA003DC2D9AFFBEFFEADEB7C00E42DFFEC3E3F
:101AEA0020000E900001F0A3EFF075DB11D2008008
:101AFA0053FE900001E0FCA3E0FDC3EF9DFFEE9CC6
:101B0A00A3F0A3EFF075DB00C200D20B803630D809
:101B1A0033C2D8900067E07002A3E06022B2B490AA
:101B2A000069E0FEA3E0F5EAEEF5FAA3E0FEA3E021
:101B3A00FF90006AE02FF0900069E03EF08005C255
:041B4A00B453DAFEB8
:101B4E00D007D006D005D004D0D0D082D083D0E03C
:011B5E003254
:06274C001221B4D2AF22FD
:101D23003004047F0180027F002009047E018002C9
:101D33007E00EE5F6074E569C3955B5068300236E0
:101D4300755F01E569131313541FAB6BAA6CA96D7F
:101D5300F582758300120680FFE569540704FEEFE0
:101D6300A806088002C333D8FC30D705756A038000
:101D73002F756A01802AAB6BAA6CA96D75F002E519
:101D830069A4F58285F083120680F55FE56975F035
:101D930002A429F9EA35F0FA900001120680F56AE7
:0A1DA3000569D20922C204438F1023
:011DAD002213
:10194000900000E014F0701F740AF0D20590002996
:10195000E014F07012740AF0D20890006DE014F0F8
:101960007005740AF0D20190002AA3E0FAA3E0F90E
:101970001208F990002DA3E0FAA3E0F91208F990FB
:101980000039A3E0FAA3E0F91208F9900045A3E0BA
:10199000FAA3E0F91208F9900054A3E0FAA3E0F9E1
:1019A0001208F990005DA3E0FAA3E0F91208F9909B
:1019B0000005A3E0FAA3E0F91208F990004BA3E0B8
:1019C000FAA3E0F91208F9EF600C90001DA3E0FA09
:1019D000A3E0F91208F990004EA3E0FAA3E0F9128F
:1019E00008F9EF600C900020A3E0FAA3E0F91208D8
:1019F000F9900051A3E0FAA3E0F91208F9EF600CA6
:0D1A0000900023A3E0FAA3E0F91208F922F8
:101C040090003FA3E0FAA3E0F91208F9900042A380
:101C1400E0FAA3E0F91208F9900033A3E0FAA3E094
:101C2400F91208F9900008A3E0FAA3E0F91208F900
:101C3400900030A3E0FAA3E0F91208F9EF600C90E9
:101C44000011A3E0FAA3E0F91208F9900036A3E02A
:101C5400FAA3E0F91208F9EF600C900017A3E0FA78
:101C6400A3E0F91208F9900048A3E0FAA3E0F912FE
:101C740008F9EF600C90001AA3E0FAA3E0F9120847
:101C8400F930060EC206900026A3E0FAA3E0F9128A
:031C940008F9222A
:1022C50090000BA3E0FAA3E0F91208F990003CA3F3
:1022D500E0FAA3E0F91208F9EF600C900014A3E00E
:1022E500FAA3E0F91208F9900057A3E0FAA3E0F980
:0F22F5001208F990005AA3E0FAA3E0F90208F9E1
:10247A00AF63AE62AD61AC609000601208E190009B
:10248A0064E568F0E4F563F562F561F560F5689076
:0B249A00000EA3E0FAA3E0F90208F92D
:10234300300705C207121D23300A05C20A121940BD
:10235300300505C205121C04300805C2081222C547
:10236300300105C20112247AE5632401F563E435E3
:0E23730062F562E43561F561E43560F56022E3
:101EB8008B0F8A108911EFB40C005070901ECBF86C
:101EC800282873021EEF021EF4021EF9021EFE02EB
:101ED8001F03021F08021F0D021F12021F17021FF5
:101EE8001C021F21021F26900005803590000880E3
:101EF8003090000B802B90000E80269000118021DE
:101F0800900017801C900014801790001A8012907F
:101F1800001D800D90002080089000238003900011
:0D1F280026E50FF0A3E510F0A3E511F0226F
:07272B007B017A00796022B6
:07105E000172004100D20005
:0D002E0020A4097572019000D27401F02227
:0226E20015736E
:0926E400A873A672E4F572E6FF8A
:0326ED0005732250
:1025C30090003C74FFF0A37426F0A374E2F0900033
:0D25D3003974FFF0A37400F0A3742EF02201
:02268B001573C5
:0A268D009000D2E0A873F6FFE4F01D
:03269700057322A6
:1012EA0000C400DC00F701060126014A01720188E8
:1012FA0001B801EE020B024B029302E403100370E1
:10130A0003DC04160497052605C800DC00F701155E
:10131A000126014A0172019F01B801EE022A024B1D
:10132A00029302E4033F037003DC04550497052685
:10133A0005C8067D00F701150137014A0172019FB0
:10134A0001D201EE022A026E029302E4033F03A4D1
:10135A0003DC045504DD057505C8067D0749010649
:10136A000126014A015D018801B801EE020B024B18
:10137A00029302BA0310037003DC041604970526CD
:10138A000575062006E007B80126014A01720188A0
:10139A0001B801EE022A024B029302E40310037021
:1013AA0003DC04550497052605C8062006E007B89D
:1013BA0008AA014A0172019F01B801EE022A026ECF
:1013CA00029302E4033F037003DC045504DD05269F
:1013DA0005C8067D06E007B808AA09B9015D0188B3
:1013EA0001B801D2020B024B029302BA0310037036
:1013FA0003A40416049705260575062006E0074986
:06140A00082D092D0A4D1A
:101065004D00A60300000000000000000000000085
:061A0D008F0F8D108B11FC
:101A13001226F0EF60037F0122E511D39400400604
:101A2300E51194114028E511D394174006E511946C
:101A330021401BE511D394274006E5119431400E54
:101A4300E511D394375007E50FC394F950037F038F
:101A530022E511603DC4540F75F007A4FDACF0E519
:101A63000F75F015A42DFFE5F03CFEE51154077C3E
:101A7300002FFFEC3EFEEF25E0FFEE33FE74002F58
:101A8300F58274EA3EF583E493F513740193F51438
:101A93008005E4F513F514AF127E007C017D771207
:101AA30006CFAD101C1206E1AD07AC06AF14AE13A2
:031AB300121F35CA
:011AB600220D
:0408FF0015731573E5
:100903001226F0EF70047F0180027F009000A6E0C2
:10091300FEB402047D0180027D00ED5F6003020BE3
:10092300F0EEB4030AE49000A4F0A3F0020BF090FD
:1009330000A7E0FFB4F3047E0180027E00EFB4F170
:10094300047F0180027F00EF4E603E9000A9E0FE2D
:1009530075F06484FFEE75F00A8475F00A84ADF0D7
:10096300E075F00A84ABF075120A9000A8E0240742
:10097300F5139000A3E0FEC4540F240AF514751573
:100983000AEE5407F5161225669000A7E0FFB4F3AC
:10099300047E0180027E00EFB4F2047F0180027FB7
:1009A30000EF4E7003020A499000A9E0FD7C007E2F
:1009B300177F701206E1A873A607E6F975F002A483
:1009C300FFC39000B2E09F9000B1E095F05070E05B
:1009D300FEA3E0FF7C007D0B1206CFE9FBFD1206B0
:1009E300E1A87308A6079000B1E475F00112074C63
:1009F300FED3E5F09BEE94004018A87308E624F9B3
:100A0300FFE47EF0A807088005CEC313CE13D8F900
:100A1300801FA87308E6FF740F7E00A807088005EF
:100A2300C333CE33CED8F97804CEA2E713CE13D88E
:100A3300F8A87308F6A87308E6FF1227468007E4B0
:100A43009000B1F0A3F09000ADE0FEA3E0FFC390EF
:100A530000B0E09F9000AFE09E4003020BEA122635
:100A6300F0EF6003020BF09000AAE0FBA3E0FAA30F
:100A7300E0F99000AFE0FEA3E0F5828E83120680DA
:100A8300FFD394375003020B85EF241024FC5079D5
:100A9300604524FE7003020B30147003020B4624DE
:100AA300026003020B749000AAE0FBA3E0FAA3E048
:100AB300F99000AFE475F00112073685F082F583F3
:100AC3001206809000A8F09000B0E004F0709890B7
:100AD30000AFE004F080909000AAE0FBA3E0FAA34B
:100AE300E0F99000AFE475F00112073685F082F566
:100AF300831206809000A9F09000B0E004F0706EBD
:100B03009000AFE004F0020A6A9000AAE0FBA3E0C1
:100B1300FAA3E0F99000AFE475F00112074C85F0F9
:100B230082F5831206809000A7F0020A6A9000AF54
:100B3300E475F001120736AFF09000A4F0A3EFF0D4
:100B4300020A6A9000A4E0FEA3E0FF4E6012900048
:100B5300AFEEF0A3EFF0E49000A4F0A3F0020A6A72
:100B63009000B0E004F070069000AFE004F0020AD9
:100B73006A9000B0E004F070069000AFE004F00269
:100B83000A6A9000ADE0FEA3E0FFC39000B0E09FCF
:100B93009000AFE09E50569000AAE0FBA3E0FAA3BA
:100BA300E0F99000AFE475F00112074C85F082F58F
:100BB300831206809000A3F09000A8E0FFA3E0FD5D
:100BC300A3E0FBA3E0FAA3E0F99000AFE475F00122
:100BD30012074C85F082F583120680F5129000A36C
:0D0BE300E0FB121A0D80069000A67403F0CE
:050BF0000573057322EE
:0F269A0090004274FFF0A37408F0A374FFF022C5
:102071009000A6E0B4030DE49000AFF0A3F0A3F04C
:10208100A3F0C20DE51660049000A7F0EF60049084
:1020910000A9F0ED60049000A8F0E94A60047F0116
:1020A10080027F00E515451460047E0180027E00F8
:1020B100EE5F60139000AAEBF0A3EAF0A3E9F0A3AE
:0820C100E514F0A3E515F0227F
:1024F600BF02047E0180027E00BF01047D018002CE
:102506007D00ED4EFEBF03047D0180027D00ED4E91
:0825160060059000A6EFF02221
:062752009000A6E0FF224A
:041075004100D10164
:10263100C295E4FEEF1392CC000000D29500EFC3E7
:0826410013FFC2950EBE08EC68
:01264900226E
:10266300E4FEEFC313FF30CC03430780D295000091
:0726730000C2950EBE08EB4A
:01267A00223D
:10244C00F07F8512245FA3EFF07F8712245FA3EF48
:03245C00F07F8985
:10245F00C296000000C295000000D29600122631ED
:0A246F00122663D295000000C29609
:012479002240
:03258600A3E0FDD2
:10258900C296000000C295000000D29600122631C2
:0D259900AF05122631D295000000C2962237
:072732007B017A0079CA2245
:10264A0078CA7C007D017B007A0079167E007F07BC
:09265A0012065AE49000D1F022AE
:10000E00EFD3941F5009EF25E044C1FF02245F7F18
:02001E000122BD
:1024A500AC07AB05ECD3941F501CE4FD7F8E1225C1
:1024B50089EC25E044C0FFAD031225897D807F8E20
:0924C5001225897F00227F01220B
:021B5F001573FC
:101B61009000D1E060447F8112245FA873EFF6906A
:101B710000CAE06F7003021C01A873E6F07F8312B4
:101B8100245FA873EFF6A3E06F6075A873E61224D3
:101B91004CA3EFF07F8D12245F9000D0EFF07F8B8C
:101BA10012245F9000CFEFF080569000C9E0FF044F
:101BB100F0EFC3940A4049E4F09000D104F0E4FD51
:101BC1007F8E1225899000CAE0FD7F801225897FD2
:101BD100821225867F84122586A3E0FD7F86122549
:101BE10089A3E0FD7F88122589A3E0FD7F8A122564
:101BF10089A3E0FD7F8C1225897D807F8E12258946
:031C010005732246
:101759007F8112245F9000CAEFF07F8312245FA378
:10176900EF12244CA3EFF07F8B12245FA3EFF07FDD
:101779008D12245FA3EFF0E4FD7F8E1225897F1E71
:1017890012000EEF64A560047F0180027F009000C3
:10179900CAE05480FEA3E0D3945940047D0180023D
:1017A9007D00ED4EFE9000CCE0D394A440047D0171
:1017B90080027D00ED4EFE9000CDE0D394314004CF
:1017C9007D0180027D00ED4EFE9000CEE0D39412A3
:1017D90040047D0180027D00ED4EFE9000CFE0D3F4
:1017E900940740047D0180027D00ED4EFE9000D0FB
:1017F900E0D3949940047D0180027D00ED4E4F6055
:101809003078167C007D007B007A00790F7E007F9E
:101819000712065A12264A7DA57F1E1224A578CAE8
:101829007C007D017B007A00790F7E007F0712061C
:101839005A7DA97F901225897D807F8E12258990F6
:0E184900005A74FFF0A3741BF0A3745FF0222A
:10267B0053B1DF43B220C2B5C2098F5E438F102224
:03005300021FADDC
:101FAD00C0E0C083C082C0D075D000C000C001C0E9
:031FBD0002C0035C
:101FC000200313D203757108756700757000E55E14
:101FD000C313F55C8028E57025E0F570E55DC394DA
:101FE0000340020570D57116757108AB64AA65A926
:101FF00066856782758300E5701206AD0567755DBD
:0120000000DF
:10200100D003D002D001D000D0D0D082D083D0E094
:01201100329C
:072739008B648A65896622AA
:03004F00AF672276
:10241B002003047F0180027F002009047E018002DB
:10242B007E00EE5F60188B6B8A6C896DEDC313F5C4
:10243B005BC202E4F569538FEFD2047F02227F0364
:01244B00226E
:102304002003047F0180027F002009047E018002F3
:102314007E00EE5F6026538FEF755F10756A08D2FA
:1023240009438F018B6B8A6C896DED75F008A404E9
:0F233400F55BD202E4F569D2047F02227F032217
:1025E0002003047F0180027F002009047E01800215
:0C25F0007E00EE5F60037F00227F01226E
:1010790057008C04B00000000000000000000000D0
:0A108900000000000100000000005C
:030023000216477B
:10164700C0E0C0F0C083C082C0D075D000C000C069
:1016570001C002C003C004C005C006C00730993BE3
:10166700C299900093E0FEA3E0FFC3900092E09F31
:10167700900091E09E501F90008EE0FBA3E0FAA33C
:10168700E0F9A3E475F00112074C85F082F58312A7
:101697000680F5998005900095E4F02098030217DD
:1016A7003EC298900096E0FBA3E0FAA3E0F9900011
:1016B7009BE0FEA3E0FFF5828E83E5991206AD90CD
:1016C70000A1E0FCA3E0FDC3EF9DEE9C5046900017
:1016D70099E0FEA3E0FFED9FEC9E503890009EE05E
:1016E700FBA3E0FAA3E0F990009BE0FEA3E0FFF57F
:1016F700828E83120680FD900096E0FBA3E0FAA39A
:10170700E0F98F828E831206806D600890009B74CB
:10171700FFF0A3F090009BE475F001120736FED3AB
:1017270090009AE095F0900099E09E500A90009BF7
:10173700E4F0A3F0A304F0D007D006D005D004D07E
:1017470003D002D001D000D0D0D082D083D0F0D047
:02175700E0327E
:0226A9001573A7
:0A26AB0090009DE0A873F6FFE4F034
:0326B50005732288
:101DAE008E0F8F10759850438E40538EFE53890FB1
:101DBE00E47B04FAF9F8901E371208D1120818C005
:101DCE0006C007AE0FAF10AB07AA06E4F9F8D007AE
:101DDE00D006120818EFF404F58BE47B04FAF9F838
:101DEE00901E371208D1120818C006C007AE0FAFEA
:101DFE0010AB07AA06E4F9F8D007D006120818C3EC
:101E0E00E49FFFE49EFE74019DFDE49CFC780812A5
:101E1E0008AA8F8DC2ABD28ED2AC90004E74FFF05A
:091E2E00A37426F0A374A9F022AC
:1023B700900096EBF0A3EAF0A3E9F0A3ECF0A3ED0D
:1023C700F09000A1E517F0A3E518F090009EE51442
:1023D700F0A3E515F0A3E516F0E490009BF0A3F059
:0323E700A3F0223E
:10251E00900095E0701F90008EEBF0A3EAF0A3E917
:10252E00F0E4A3F0A3F0A3ECF0A3EDF0A37401F09C
:08253E00D2997F02227F0322E3
:0B26FC00900095E07002FF227F012299
:03000000021C9748
:0C1C9700787FE4F6D8FD758173021CDE36
:10058A00E709F608DFFA8046E709F208DFFA803E53
:10059A0088828C83E709F0A3DFFA8032E309F60840
:1005AA00DFFA8078E309F208DFFA807088828C83A8
:1005BA00E309F0A3DFFA806489828A83E0A3F6085C
:1005CA00DFFA805889828A83E0A3F208DFFA804C36
:1005DA0080D280FA80C680D4806980F2803380100D
:1005EA0080A680EA809A80A880DA80E280CA803376
:1005FA0089828A83ECFAE493A3C8C582C8CCC583EE
:10060A00CCF0A3C8C582C8CCC583CCDFE9DEE780BD
:10061A000D89828A83E493A3F608DFF9ECFAA9F03C
:10062A00EDFB2289828A83ECFAE0A3C8C582C8CC92
:10063A00C583CCF0A3C8C582C8CCC583CCDFEADEAB
:10064A00E880DB89828A83E493A3F208DFF980CC0D
:10065A0088F0EF60010E4E60C388F0ED2402B40406
:10066A000050B9F582EB2402B4040050AF232345AD
:06067A0082239005DA73F3
:10068000BB010CE58229F582E5833AF583E022502F
:1006900006E92582F8E622BBFE06E92582F8E22279
:0D06A000E58229F582E5833AF583E4932293
:1006AD00F8BB010DE58229F582E5833AF583E8F083
:1006BD00225006E92582C8F622BBFE05E92582C82F
:0206CD00F22217
:1006CF00EF8DF0A4A8F0CF8CF0A428CE8DF0A42E3F
:0206DF00FE22F9
:1006E100BC000BBE0029EF8DF084FFADF022E4CCFD
:1006F100F875F008EF2FFFEE33FEEC33FCEE9DECC6
:10070100984005FCEE9DFE0FD5F0E9E4CEFD22ED0B
:10071100F8F5F0EE8420D21CFEADF075F008EF2F55
:10072100FFED33FD4007985006D5F0F222C398FD46
:050731000FD5F0EA22E3
:10073600C5F0F8A3E028F0C5F0F8E582158270024E
:060746001583E038F022EB
:10074C00A3F8E0C5F025F0F0E58215827002158360
:06075C00E0C838F0E822BD
:10076200BB010A89828A83E0F5F0A3E02250068762
:10077200F009E71922BBFE07E3F5F009E319228924
:0B078200828A83E493F5F07401932257
:10078D00E88FF0A4CC8BF0A42CFCE98EF0A42CFC0B
:10079D008AF0EDA42CFCEA8EF0A4CDA8F08BF0A489
:1007AD002DCC3825F0FDE98FF0A42CCD35F0FCEBE8
:1007BD008EF0A4FEA9F0EB8FF0A4CFC5F02ECD39AD
:0F07CD00FEE43CFCEAA42DCE35F0FDE43CFC221A
:1007DC0075F008758200EF2FFFEE33FECD33CDCCD4
:1007EC0033CCC58233C5829BED9AEC99E582984057
:1007FC000CF582EE9BFEED9AFDEC99FC0FD5F0D634
:10080C00E4CEFBE4CDFAE4CCF9A88222B800C1B95D
:10081C000059BA002DEC8BF084CFCECDFCE5F0CB9B
:10082C00F97818EF2FFFEE33FEED33FDEC33FCEBD4
:10083C0033FB10D703994004EB99FB0FD8E5E4F98F
:10084C00FA227818EF2FFFEE33FEED33FDEC33FC7C
:10085C00C933C910D7059BE99A4007EC9BFCE99A70
:10086C00F90FD8E0E4C9FAE4CCFB2275F010EF2FB5
:10087C00FFEE33FEED33FDCC33CCC833C810D707B5
:10088C009BEC9AE899400AED9BFDEC9AFCE899F8F0
:0E089C000FD5F0DAE4CDFBE4CCFAE4C8F92283
:10224100C2D5E830E70FB2D5E4C39BFBE49AFAE4C8
:1022510099F9E498F8EC30E717B2D5122277120811
:1022610018E4C39BFBE49AFAE499F9E498F8800333
:1022710012081830D50DE4C39FFFE49EFEE49DFDD6
:04228100E49CFC22BB
:1008AA00E8600FECC313FCED13FDEE13FEEF13FF2C
:0308BA00D8F12250
:1008BD00E86010ECA2E713FCED13FDEE13FEEF1351
:0408CD00FFD8F0223E
:1008D100E493FC740193FD740293FE740393FF226D
:0C08E100ECF0A3EDF0A3EEF0A3EFF0228A
:0C08ED00A42582F582E5F03583F5832216
:0608F9008A838982E4738A
:101CA3000211C0E493A3F8E493A34003F68001F286
:101CB30008DFF48029E493A3F85407240CC8C33342
:101CC300C4540F4420C8834004F456800146F6DF11
:101CD300E4800B0102040810204080900F57E47E3B
:101CE300019360BCA3FF543F30E509541FFEE49306
:101CF300A360010ECF54C025E060A840B8E493A3CD
:101D0300FAE493A3F8E493A3C8C582C8CAC583CAF7
:101D1300F0A3C8C582C8CAC583CADFE9DEE780BEAF
:01109300005C
:00000001FF
